:100000000C942A000C9447000C9447000C94470071
:100010000C9447000C9447000C9447000C94511327
:100020000C9447000C9484130C9447000C944700E4
:100030000C9447000C9447000C9447000C94470024
:100040000C9447000C9447000C9447000C94470014
:100050000C94470011241FBECFE5D8E0DEBFCDBF12
:1000600010E0A0E6B0E0ECEEFBE202C005900D92DD
:10007000A23EB107D9F710E0A2EEB0E001C01D9298
:10008000AA3FB107E1F70E94A3050C94F4150C9464
:100090000000EF92FF920F931F937B018C0120E0F1
:1000A00030E040E05FE40E94490388238CF0C801FF
:1000B000B70120E030E040E05FE40E94C1010E940F
:1000C000A9039B01AC01205030404040504806C07D
:1000D000C801B7010E94A9039B01AC01B901CA0183
:1000E0001F910F91FF90EF900895A0E0B0E0EBE733
:1000F000F0E00C947815DC012B01FA019C91923010
:1001000008F439C1EB018881823008F433C194309E
:1001100069F4843009F02FC111969C91119789815F
:10012000981709F428C1ACECB0E025C1843009F47B
:1001300021C18230A9F4923009F01DC19A01AD01AC
:1001400088E0EA010990AE01E90109929E0181501F
:10015000C1F7E201898111969C918923818308C1AD
:10016000923009F407C112962D903C901397EB0141
:100170008A819B811496AD90BD90CD90DC901797AD
:10018000EC80FD800E811F819101281B390BB90184
:1001900037FF04C066277727621B730B6032710537
:1001A0000CF061C0121613066CF537014801062EDB
:1001B00004C096948794779467940A94D2F721E0C8
:1001C00030E040E050E004C0220F331F441F551FB1
:1001D0006A95D2F721503040404050402E213F21B7
:1001E00040235123211531054105510521F021E01E
:1001F00030E040E050E079018A01E628F72808293C
:1002000019293CC0232BD1F1260E371E350146019A
:10021000062E04C096948794779467940A94D2F734
:1002200021E030E040E050E004C0220F331F441FC3
:10023000551F6A95D2F721503040404050402A2146
:100240003B214C215D21211531054105510521F04E
:1002500021E030E040E050E059016A01A628B728CB
:10026000C828D9280BC0821593052CF01C01AA249C
:10027000BB24650103C0EE24FF24870111969C91E5
:10028000D20111968C91981709F445C0992339F041
:10029000A80197012A193B094C095D0906C0A6016E
:1002A00095012E193F09400B510B57FD08C01182D3
:1002B0003382228224833583468357831DC081E0A5
:1002C00081833382228288279927DC01821B930B4A
:1002D000A40BB50B84839583A683B7830DC0220F2F
:1002E000331F441F551F24833583468357838281E0
:1002F000938101979383828324813581468157813D
:10030000DA01C9010197A109B1098F5F9F4FAF4F72
:10031000BF4328F30BC0918333822282EA0CFB1C7B
:100320000C1D1D1DE482F5820683178383E0808304
:10033000248135814681578157FF1AC0C901AA27F8
:1003400097FDA095BA2F81709070A070B0705695EF
:10035000479537952795822B932BA42BB52B848318
:100360009583A683B7838281938101969383828349
:10037000DF0101C0D201CD01CDB7DEB7E2E10C94BF
:100380009415A0E2B0E0E7ECF1E00C9484156983E9
:100390007A838B839C832D833E834F835887E9E048
:1003A000EE2EF12CEC0EFD1ECE010196B7010E943F
:1003B000D2048E010F5E1F4FCE010596B8010E9438
:1003C000D2048A8991E089278A8BC701B801AE01DE
:1003D000475E5F4F0E9475000E94FD03A096E6E015
:1003E0000C94A015A0E2B0E0E8EFF1E00C948415C5
:1003F00069837A838B839C832D833E834F835887C5
:10040000F9E0EF2EF12CEC0EFD1ECE010196B701A6
:100410000E94D2048E010F5E1F4FCE010596B801D7
:100420000E94D204C701B801AE01475E5F4F0E942F
:1004300075000E94FD03A096E6E00C94A015A0E2D2
:10044000B0E0E5E2F2E00C94781569837A838B835F
:100450009C832D833E834F835887CE010196BE0136
:10046000675F7F4F0E94D204CE010596BE016F5E8A
:100470007F4F0E94D2049985923088F0898982301A
:10048000C8F0943019F4823051F404C0843029F457
:10049000923081F48CEC90E0C6C0923049F420E0B8
:1004A0009A858A89981321E02A87CE010996BBC0D4
:1004B000823049F420E09A858A89981321E02A8BBA
:1004C000CE014196B0C02D843E844F8458886D88FB
:1004D0007E888F88988CEE24FF248701AA24BB2471
:1004E000650140E050E060E070E0E0E0F0E0C10174
:1004F00081709070892BE9F0E60CF71C081D191D1E
:100500009A01AB012A0D3B1D4C1D5D1D80E090E062
:10051000A0E0B0E0E614F7040805190520F481E036
:1005200090E0A0E0B0E0BA01A901480F591F6A1F8E
:100530007B1FAA0CBB1CCC1CDD1C97FE08C081E0F5
:1005400090E0A0E0B0E0A82AB92ACA2ADB2A3196B6
:10055000E032F10549F0660C771C881C991C569412
:10056000479437942794C3CFFA85EA892B893C892D
:100570008B859C85280F391F2E5F3F4F17C0CA01FE
:1005800081709070892B61F016950795F794E79428
:1005900080E090E0A0E0B0E8E82AF92A0A2B1B2BC3
:1005A00076956795579547952F5F3F4F77FDE7CF36
:1005B0000CC0440F551F661F771F17FD4160EE0CDE
:1005C000FF1C001F111F21503040403090E05907A0
:1005D00090E0690790E4790760F32B8F3C8FDB0193
:1005E000CA018F779070A070B07080349105A1051A
:1005F000B10561F447FD0AC0E114F10401051105DC
:1006000029F0405C5F4F6F4F7F4F40781A8EFE1786
:1006100011F081E08A8F4D8F5E8F6F8F78A383E01A
:10062000898FCE0149960E94FD03A096E2E10C94C9
:100630009415A8E1B0E0EFE1F3E00C948415698330
:100640007A838B839C832D833E834F83588789E0F5
:10065000E82EF12CEC0EFD1ECE010196B7010E9492
:10066000D2048E010F5E1F4FCE010596B8010E9485
:10067000D2048985823040F08989823028F0C70110
:10068000B8010E944A0501C08FEF6896E6E00C941D
:10069000A015A8E1B0E0EFE4F3E00C9484156983C1
:1006A0007A838B839C832D833E834F83588789E095
:1006B000E82EF12CEC0EFD1ECE010196B7010E9432
:1006C000D2048E010F5E1F4FCE010596B8010E9425
:1006D000D2048985823040F08989823028F0C701B0
:1006E000B8010E944A0501C08FEF6896E6E00C94BD
:1006F000A015A8E1B0E0EFE7F3E00C94841569835E
:100700007A838B839C832D833E834F83588789E034
:10071000E82EF12CEC0EFD1ECE010196B7010E94D1
:10072000D2048E010F5E1F4FCE010596B8010E94C4
:10073000D2048985823040F08989823028F0C7014F
:10074000B8010E944A0501C081E06896E6E00C9479
:10075000A015ACE0B0E0EFEAF3E00C9488156983F3
:100760007A838B839C83CE010196BE016B5F7F4FA2
:100770000E94D2048D81823061F1823050F1843048
:1007800021F48E81882351F12EC02F81388537FDC9
:1007900020C06E812F3131051CF06623F9F023C093
:1007A0008EE190E0821B930B29853A854B855C8511
:1007B00004C056954795379527958A95D2F76623B5
:1007C000B1F050954095309521953F4F4F4F5F4F79
:1007D0000EC020E030E040E050E009C02FEF3FEFD6
:1007E0004FEF5FE704C020E030E040E050E8B9019F
:1007F000CA012C96E2E00C94A415DF92EF92FF92CE
:100800000F931F93FC01E480F58006811781D1804E
:100810008081823048F480E090E0A0E1B0E0E82AF6
:10082000F92A0A2B1B2BA5C0843009F49FC0823003
:1008300021F4EE24FF24870105C0E114F104010531
:10084000110519F4E0E0F0E096C0628173819FEF3A
:10085000623879070CF05BC022E83FEF261B370BAC
:100860002A3131052CF020E030E040E050E02AC091
:10087000B801A701022E04C0769567955795479554
:100880000A94D2F781E090E0A0E0B0E004C0880FC5
:10089000991FAA1FBB1F2A95D2F70197A109B10979
:1008A0008E219F21A023B1230097A105B10521F03E
:1008B00081E090E0A0E0B0E09A01AB01282B392B59
:1008C0004A2B5B2BDA01C9018F779070A070B07052
:1008D00080349105A105B10539F427FF09C0205CDA
:1008E0003F4F4F4F5F4F04C0215C3F4F4F4F5F4F13
:1008F000E0E0F0E02030A0E03A07A0E04A07A0E402
:100900005A0710F0E1E0F0E079018A0127C0603871
:10091000710564F5FB01E158FF4FD801C7018F77DE
:100920009070A070B07080349105A105B10539F4C4
:10093000E7FE0DC080E490E0A0E0B0E004C08FE3EB
:1009400090E0A0E0B0E0E80EF91E0A1F1B1F17FFA1
:1009500005C016950795F794E794319687E01695AC
:100960000795F794E7948A95D1F705C0EE24FF2404
:100970008701EFEFF0E06E2F679566276795902F60
:100980009F77D794DD24D7948E2F8695492F462BB9
:10099000582F5D29B701CA011F910F91FF90EF9069
:1009A000DF900895FC01DB01408151812281622F9B
:1009B0006F7770E0221F2227221F9381892F880FD3
:1009C000822B282F30E0991F9927991F11969C930D
:1009D000119721153105A9F54115510561057105DD
:1009E00011F482E037C082E89FEF13969C938E93B8
:1009F00012979A01AB0167E0220F331F441F551F66
:100A00006A95D1F783E08C930DC0220F331F441FEA
:100A1000551F12968D919C911397019713969C9355
:100A20008E931297203080E0380780E0480780E4FA
:100A3000580758F314962D933D934D935C93179755
:100A400008952F3F310579F4411551056105710570
:100A500019F484E08C93089564FF03C081E08C93C3
:100A600012C01C9210C02F57304013963C932E9307
:100A7000129783E08C9387E0440F551F661F771F02
:100A80008A95D1F7706414964D935D936D937C9322
:100A9000179708951F93DC01FB019C91923008F495
:100AA00047C08081823008F443C0943051F41196DD
:100AB0001C91843099F58181682F70E0611B710968
:100AC0003FC0843021F0923031F48230B9F181811D
:100AD000882389F12DC011961C9111978230F1F075
:100AE00081811817D9F412962D913C911397828128
:100AF00093818217930794F028173907BCF0149656
:100B00008D919D910D90BC91A02D248135814681C0
:100B10005781281739074A075B0718F4112341F05A
:100B20000AC082179307A407B50740F4112319F0F0
:100B300061E070E005C06FEF7FEF02C060E070E041
:100B4000CB011F910895DF93CF93CDB7DEB76797A1
:100B50000FB6F894DEBF0FBECDBFCE0101969F87C2
:100B60008E87EBEDF0E0F98BE88BF6E0FA8BE88905
:100B7000F9890080888999890196998B888BEE85FF
:100B8000FF8500828E859F8501969F878E879A8933
:100B900091509A8BEA89EE2351F7CE0107969C8BF0
:100BA0008B8BE4EDF0E0FE8BED8BF7E0FF8BED89B6
:100BB000FE8900808D899E8901969E8B8D8BEB89A5
:100BC000FC8900828B899C8901969C8B8B8B9F89E9
:100BD00091509F8BEF89EE2351F7CE0107960E942B
:100BE0004E140E94260E87E696E00E943C1415C023
:100BF0000E94730684EE90E00E94870989EE90E0DF
:100C00000E94B0090E94DB148430E1F785E00E9465
:100C1000C4140E94DB148093EE008091EE008823C0
:100C200039F30E94D4078091F5008823E1F4809184
:100C3000F7008330C1F4CE0101960E94B7131092E1
:100C4000F6000E94471380E060E00E94C91280E62F
:100C500090E00E94A0128091F6008C33E0F30E9495
:100C600020141092F7008091F500813009F58091F1
:100C7000EF008B32E9F4CE0101960E94B713109277
:100C8000F6000E9447130E9478098091F600823195
:100C9000E0F31092F6000E9447130E9469098091C8
:100CA000F6008F30E0F30E9447130E9420140CC01E
:100CB0008091F500813041F48091EF008D3221F474
:100CC0001092EE000E9447131092F500A6CFDF931A
:100CD000CF93CDB7DEB78091F6008F5F8093F6009B
:100CE000CF91DF910895DF93CF93CDB7DEB76C97A7
:100CF0000FB6F894DEBF0FBECDBF1092E200109287
:100D0000E30080E060E00E94C91286E690E00E9465
:100D1000A01281E060E00E94C9128CC00E94170DF1
:100D20008093E2008091E200853269F08AE20E94BD
:100D3000B1108091E300882F90E02091E200FC0147
:100D4000EC51FF4F20838091E3008F5F8093E3009D
:100D500080E090E0AAEFB3E4898F9A8FAB8FBC8FCD
:100D6000698D7A8D8B8D9C8D20E030E04AE753E4CD
:100D70000E941F02DC01CB018D8B9E8BAF8BB88F45
:100D80006D897E898F89988D20E030E040E85FE3AF
:100D90000E94790388232CF481E090E09C8B8B8B5C
:100DA0003FC06D897E898F89988D20E03FEF4FE7A6
:100DB00057E40E94190318164CF5698D7A8D8B8DB6
:100DC0009C8D20E030E040E251E40E941F02DC01F3
:100DD000CB01BC01CD010E944900DC01CB019C8B01
:100DE0008B8B0FC089E190E09A8B898B89899A89D6
:100DF0000197F1F79A8B898B8B899C8901979C8B42
:100E00008B8B8B899C89009769F714C06D897E89CB
:100E10008F89988D0E944900DC01CB019C8B8B8BC4
:100E20008B899C89988B8F878F8598890197F1F79B
:100E3000988B8F878091E200853209F06FCF1092F6
:100E4000E2001092E3000E94471380E060E00E94FD
:100E5000C91286E790E00E94A01281E060E00E9443
:100E6000C91287E890E00E94A01281E06BE00E9426
:100E7000C9128CC00E94170D8093E2008091E2009D
:100E8000853269F08AE20E94B1108091E300882FD8
:100E900090E02091E200FC01E751FF4F2083809118
:100EA000E3008F5F8093E30080E090E0AAEFB3E47B
:100EB0008B879C87AD87BE876B857C858D859E855E
:100EC00020E030E04AE753E40E941F02DC01CB013E
:100ED0008F839887A987BA876F81788589859A8556
:100EE00020E030E040E85FE30E94790388232CF49F
:100EF00081E090E09E838D833FC06F8178858985F6
:100F00009A8520E03FEF4FE757E40E941903181637
:100F10004CF56B857C858D859E8520E030E040E238
:100F200051E40E941F02DC01CB01BC01CD010E94F3
:100F30004900DC01CB019E838D830FC089E190E0E5
:100F40009C838B838B819C810197F1F79C838B839E
:100F50008D819E8101979E838D838D819E810097D7
:100F600069F714C06F81788589859A850E94490048
:100F7000DC01CB019E838D838D819E819A83898341
:100F800089819A810197F1F79A8389838091E200A0
:100F9000853209F06FCF6C960FB6F894DEBF0FBEA6
:100FA000CDBFCF91DF910895DF93CF93CDB7DEB75B
:100FB0006C970FB6F894DEBF0FBECDBF1092F7004E
:100FC0000E94471380E060E00E94C91282E990E02D
:100FD0000E94A01281E060E00E94C91282EA90E0C3
:100FE0000E94A0120E94170D8093E2008091E200FF
:100FF0008093EF0080E090E0AAEFB3E4898F9A8FAE
:10100000AB8FBC8F698D7A8D8B8D9C8D20E030E00D
:101010004AE753E40E941F02DC01CB018D8B9E8BBB
:10102000AF8BB88F6D897E898F89988D20E030E0F5
:1010300040E85FE30E94790388232CF481E090E08C
:101040009C8B8B8B3FC06D897E898F89988D20E02A
:101050003FEF4FE757E40E94190318164CF5698DCE
:101060007A8D8B8D9C8D20E030E040E251E40E942F
:101070001F02DC01CB01BC01CD010E944900DC0153
:10108000CB019C8B8B8B0FC089E190E09A8B898B75
:1010900089899A890197F1F79A8B898B8B899C8929
:1010A00001979C8B8B8B8B899C89009769F714C067
:1010B0006D897E898F89988D0E944900DC01CB0162
:1010C0009C8B8B8B8B899C89988B8F878F8598893C
:1010D0000197F1F7988B8F8786E00E94C4140E94D5
:1010E000DB148330E1F78091EF000E94C4148091FB
:1010F000E2008B3209F4DBC08091E2008D3209F00E
:10110000DFC0D5C01092E2001092E3000E944713A6
:1011100080E060E00E94C91286E690E00E94A01282
:1011200081E060E00E94C9128CC00E94170D80937C
:10113000E2008091E200853269F08AE20E94B110FB
:101140008091E300882F90E02091E200FC01E051C3
:10115000FF4F20838091E3008F5F8093E30080E066
:1011600090E0AAEFB3E48B879C87AD87BE876B8541
:101170007C858D859E8520E030E04AE753E40E941F
:101180001F02DC01CB018F839887A987BA876F8103
:10119000788589859A8520E030E040E85FE30E9409
:1011A000790388232CF481E090E09E838D833FC0F7
:1011B0006F81788589859A8520E03FEF4FE757E476
:1011C0000E94190318164CF56B857C858D859E85CC
:1011D00020E030E040E251E40E941F02DC01CB013C
:1011E000BC01CD010E944900DC01CB019E838D83AF
:1011F0000FC089E190E09C838B838B819C81019758
:10120000F1F79C838B838D819E8101979E838D83D3
:101210008D819E81009769F714C06F8178858985DB
:101220009A850E944900DC01CB019E838D838D81CC
:101230009E819A83898389819A810197F1F79A83A4
:1012400089838091E200853209F06FCF0E94DB1420
:101250008330E1F781E00E94C4140E94DB148330E4
:10126000E1F71092E3000FC08091E300882F90E037
:10127000FC01E051FF4F80810E94C4148091E30083
:101280008F5F8093E3008091E300853068F30E94D4
:10129000DB148430E1F785E00E94C4140E94DB1463
:1012A0008093F5008091F7008F5F8093F700809125
:1012B000F500882329F48091F700833008F422CFC9
:1012C0006C960FB6F894DEBF0FBECDBFCF91DF9105
:1012D0000895DF93CF93CDB7DEB780E060E00E9442
:1012E000C91280EB90E00E94A012CF91DF91089587
:1012F000DF93CF93CDB7DEB780E060E00E94C912E4
:101300008DEB90E00E94A012CF91DF910895DF93C2
:10131000CF9300D0CDB7DEB79A83898381E00E9456
:10132000C4140E94DB148330E1F71092E3000FC075
:101330008091E300882F90E0FC01EC51FF4F808109
:101340000E94C4148091E3008F5F8093E30080913A
:10135000E300853068F30F900F90CF91DF910895EF
:10136000DF93CF9300D0CDB7DEB79A83898382E035
:101370000E94C4140E94DB148330E1F71092E30052
:101380000FC08091E300882F90E0FC01E751FF4FF0
:1013900080810E94C4148091E3008F5F8093E300FA
:1013A0008091E300853068F30F900F90CF91DF912B
:1013B0000895DF93CF9300D000D00F92CDB7DEB762
:1013C00089836A834B838A81883008F0D5C08981FC
:1013D000843008F0D1C08981282F30E03D832C83F0
:1013E0008C819D818130910509F443C02C813D8120
:1013F000223031052CF48C819D81009771F0BCC0A6
:101400002C813D812230310509F45FC08C819D81A2
:101410008330910509F485C0AFC08B818130A1F480
:10142000AAE3B0E0EAE3F0E08081482F8A81282F28
:1014300030E081E090E0022E02C0880F991F0A94EC
:10144000E2F7842B8C9398C0AAE3B0E0EAE3F0E0E3
:101450008081482F8A81282F30E081E090E0022EA1
:1014600002C0880F991F0A94E2F7809584238C9319
:1014700083C08B818130A1F4A7E3B0E0E7E3F0E023
:101480008081482F8A81282F30E081E090E0022E71
:1014900002C0880F991F0A94E2F7842B8C936CC0CA
:1014A000A7E3B0E0E7E3F0E08081482F8A81282FAE
:1014B00030E081E090E0022E02C0880F991F0A946C
:1014C000E2F7809584238C9357C08B818130A1F4FF
:1014D000A4E3B0E0E4E3F0E08081482F8A81282F84
:1014E00030E081E090E0022E02C0880F991F0A943C
:1014F000E2F7842B8C9340C0A4E3B0E0E4E3F0E097
:101500008081482F8A81282F30E081E090E0022EF0
:1015100002C0880F991F0A94E2F7809584238C9368
:101520002BC08B818130A1F4A1E3B0E0E1E3F0E0D6
:101530008081482F8A81282F30E081E090E0022EC0
:1015400002C0880F991F0A94E2F7842B8C9314C071
:10155000A1E3B0E0E1E3F0E08081482F8A81282F09
:1015600030E081E090E0022E02C0880F991F0A94BB
:10157000E2F7809584238C930F900F900F900F903B
:101580000F90CF91DF910895DF93CF9300D000D0DB
:101590000F92CDB7DEB789836A834B838A81883007
:1015A00008F0D5C08981843008F0D1C08981282F06
:1015B00030E03D832C838C819D818130910509F43D
:1015C00043C02C813D81223031052CF48C819D81DA
:1015D000009771F0BCC02C813D812230310509F4A7
:1015E0005FC08C819D818330910509F485C0AFC0B7
:1015F0008B818130A1F4ABE3B0E0EBE3F0E08081DC
:10160000482F8A81282F30E081E090E0022E02C02E
:10161000880F991F0A94E2F7842B8C9398C0ABE350
:10162000B0E0EBE3F0E08081482F8A81282F30E0A2
:1016300081E090E0022E02C0880F991F0A94E2F721
:10164000809584238C9383C08B818130A1F4A8E39F
:10165000B0E0E8E3F0E08081482F8A81282F30E075
:1016600081E090E0022E02C0880F991F0A94E2F7F1
:10167000842B8C936CC0A8E3B0E0E8E3F0E08081B9
:10168000482F8A81282F30E081E090E0022E02C0AE
:10169000880F991F0A94E2F7809584238C9357C092
:1016A0008B818130A1F4A5E3B0E0E5E3F0E0808137
:1016B000482F8A81282F30E081E090E0022E02C07E
:1016C000880F991F0A94E2F7842B8C9340C0A5E3FE
:1016D000B0E0E5E3F0E08081482F8A81282F30E0F8
:1016E00081E090E0022E02C0880F991F0A94E2F771
:1016F000809584238C932BC08B818130A1F4A2E34D
:10170000B0E0E2E3F0E08081482F8A81282F30E0CA
:1017100081E090E0022E02C0880F991F0A94E2F740
:10172000842B8C9314C0A2E3B0E0E2E3F0E080816C
:10173000482F8A81282F30E081E090E0022E02C0FD
:10174000880F991F0A94E2F7809584238C930F9059
:101750000F900F900F900F90CF91DF910895DF932E
:10176000CF9300D000D00F92CDB7DEB78A836B83C2
:1017700019828B81883008F084C08A81843008F017
:1017800080C08A81282F30E03D832C834C815D818D
:101790004130510579F18C819D818230910534F47D
:1017A0002C813D812115310569F06BC04C815D8133
:1017B00042305105B9F18C819D818330910509F446
:1017C00049C05FC0E9E3F0E08081282F30E08B81E1
:1017D000882F90E0A90102C0559547958A95E2F7B8
:1017E000CA0181709070882319F081E0898349C013
:1017F000198247C0E6E3F0E08081282F30E08B813A
:10180000882F90E0A90102C0559547958A95E2F787
:10181000CA0181709070882319F081E0898331C0FA
:1018200019822FC0E3E3F0E08081282F30E08B8124
:10183000882F90E0A90102C0559547958A95E2F757
:10184000CA0181709070882319F081E0898319C0E2
:10185000198217C0E0E3F0E08081282F30E08B810F
:10186000882F90E0A90102C0559547958A95E2F727
:10187000CA0181709070882319F081E0898301C0CA
:10188000198289810F900F900F900F900F90CF9138
:10189000DF910895DF93CF9300D000D0CDB7DEB7AE
:1018A00089836A838981843090F58981282F30E08B
:1018B0003C832B838B819C8181309105D1F02B81DE
:1018C0003C81223031052CF48B819C81009761F0A2
:1018D0001EC02B813C812230310581F08B819C819F
:1018E0008330910581F013C0EAE3F0E08A818083C0
:1018F0000EC0E7E3F0E08A81808309C0E4E3F0E012
:101900008A81808304C0E1E3F0E08A8180830F90C4
:101910000F900F900F90CF91DF910895DF93CF93A9
:1019200000D000D0CDB7DEB789836A838981843047
:1019300090F58981282F30E03C832B838B819C811B
:1019400081309105D1F02B813C81223031052CF47E
:101950008B819C81009761F01EC02B813C812230DD
:10196000310581F08B819C818330910581F013C01A
:10197000EBE3F0E08A8180830EC0E8E3F0E08A8147
:10198000808309C0E5E3F0E08A81808304C0E2E35C
:10199000F0E08A8180830F900F900F900F90CF918D
:1019A000DF910895DF93CF9300D000D0CDB7DEB79D
:1019B0008A8319828A81843090F58A81282F30E0C9
:1019C0003C832B838B819C8181309105D1F02B81CD
:1019D0003C81223031052CF48B819C81009761F091
:1019E0001EC02B813C812230310581F08B819C818E
:1019F0008330910581F013C0E9E3F0E080818983B1
:101A00000EC0E6E3F0E08081898309C0E3E3F0E003
:101A10008081898304C0E0E3F0E08081898389814B
:101A20000F900F900F900F90CF91DF910895DF935B
:101A3000CF9300D0CDB7DEB780E060E040E00E94F9
:101A4000D90980E061E040E00E94D90980E062E0CD
:101A500040E00E94D90980E063E040E00E94D9099B
:101A600080E064E040E00E94D90980E065E040E069
:101A70000E94D90980E066E040E00E94D90980E038
:101A800067E040E00E94D909198235C080E0698191
:101A900041E00E94D90980E0698140E00E94C40AC7
:101AA0001A821EC08A81982F9C5F80E0692F0E9455
:101AB000AF0B882391F48981882F90E0880F991FBC
:101AC000880F991F982F8A81890F8F5F0E947F0D41
:101AD0000F900F90CF91DF9108958A818F5F8A8355
:101AE0008A818430F8F280E0698141E00E94C40A72
:101AF00089818F5F89838981843040F2C5CFDF93EC
:101B0000CF9300D000D0CDB7DEB78A8319828A8107
:101B1000282F30E03C832B838B819C81883091057A
:101B200009F470C02B813C81293031055CF58B8133
:101B30009C818430910509F459C02B813C8125306A
:101B400031059CF48B819C818230910509F448C059
:101B50002B813C81233031050CF045C08B819C8169
:101B60008130910509F439C067C02B813C81263052
:101B7000310509F441C08B819C81873091050CF0BF
:101B80003EC037C02B813C812C30310509F446C062
:101B90008B819C818D3091055CF42B813C812A30B6
:101BA0003105B1F18B819C818B309105A4F52DC05D
:101BB0002B813C812E303105B9F18B819C818E3097
:101BC00091057CF12B813C812F30310579F18B819E
:101BD0009C818031910569F12FC087E089832EC0F7
:101BE00088E089832BC089E0898328C085E28983C6
:101BF00025C084E0898322C085E089831FC086E0F8
:101C000089831CC08AE2898319C081E0898316C058
:101C100082E0898313C083E0898310C08DE28983C9
:101C20000DC08DE089830AC0198208C08DE38983C5
:101C300005C08BE2898302C08A81898389810F90E4
:101C40000F900F900F90CF91DF910895DF93CF9376
:101C5000CDB7DEB72E970FB6F894DEBF0FBECDBF5F
:101C600081E061E041E00E94D90981E062E041E069
:101C70000E94D90980E090E0A0EAB1E48B879C87BC
:101C8000AD87BE876B857C858D859E8520E030E0A5
:101C90004AE753E40E941F02DC01CB018F8398873F
:101CA000A987BA876F81788589859A8520E030E099
:101CB00040E85FE30E94790388232CF481E090E000
:101CC0009E838D833FC06F81788589859A8520E0CA
:101CD0003FEF4FE757E40E94190318164CF56B8548
:101CE0007C858D859E8520E030E040E251E40E94B5
:101CF0001F02DC01CB01BC01CD010E944900DC01C7
:101D0000CB019E838D830FC089E190E09C838B8300
:101D10008B819C810197F1F79C838B838D819E81C0
:101D200001979E838D838D819E81009769F714C0F2
:101D30006F81788589859A850E944900DC01CB01F5
:101D40009E838D838D819E819A83898389819A81E7
:101D50000197F1F79A83898382E06FEF0E944A0C22
:101D600088E30E94C20E8CE00E94C20E81E00E94B5
:101D7000C20E2E960FB6F894DEBF0FBECDBFCF9128
:101D8000DF910895DF93CF93CDB7DEB7E9970FB614
:101D9000F894DEBF0FBECDBF89AF81E061E040E0C7
:101DA0000E94C40A80E090E0A0E8BFE38DAB9EAB48
:101DB000AFABB8AF6DA97EA98FA998AD20E030E098
:101DC0004AE753E40E941F02DC01CB0189AB9AABC6
:101DD000ABABBCAB69A97AA98BA99CA920E030E088
:101DE00040E85FE30E94790388232CF481E090E0CF
:101DF00098AB8FA73FC069A97AA98BA99CA920E0BD
:101E00003FEF4FE757E40E94190318164CF56DA9F0
:101E10007EA98FA998AD20E030E040E251E40E9415
:101E20001F02DC01CB01BC01CD010E944900DC0195
:101E3000CB0198AB8FA70FC089E190E09EA78DA73B
:101E40008DA59EA50197F1F79EA78DA78FA598A9AF
:101E5000019798AB8FA78FA598A9009769F714C031
:101E600069A97AA98BA99CA90E944900DC01CB0130
:101E700098AB8FA78FA598A99CA78BA78BA59CA58E
:101E80000197F1F79CA78BA781E062E041E00E94F7
:101E9000C40A80E090E0A0E8BFE38FA398A7A9A7B9
:101EA000BAA76FA178A589A59AA520E030E04AE7F6
:101EB00053E40E941F02DC01CB018BA39CA3ADA3C2
:101EC000BEA36BA17CA18DA19EA120E030E040E8E3
:101ED0005FE30E94790388232CF481E090E09AA3C9
:101EE00089A33FC06BA17CA18DA19EA120E03FEF03
:101EF0004FE757E40E94190318164CF56FA178A517
:101F000089A59AA520E030E040E251E40E941F023A
:101F1000DC01CB01BC01CD010E944900DC01CB01F9
:101F20009AA389A30FC089E190E098A38F8F8F8D2A
:101F300098A10197F1F798A38F8F89A19AA1019792
:101F40009AA389A389A19AA1009769F714C06BA1EC
:101F50007CA18DA19EA10E944900DC01CB019AA326
:101F600089A389A19AA19E8F8D8F8D8D9E8D0197BA
:101F7000F1F79E8F8D8F82E069AD0E948E0C80E01C
:101F800090E0A0E8BFE3898F9A8FAB8FBC8F698DFB
:101F90007A8D8B8D9C8D20E030E04AE753E40E94DF
:101FA0001F02DC01CB018D8B9E8BAF8BB88F6D89AF
:101FB0007E898F89988D20E030E040E85FE30E94C1
:101FC000790388232CF481E090E09C8B8B8B3FC0BD
:101FD0006D897E898F89988D20E03FEF4FE757E428
:101FE0000E94190318164CF5698D7A8D8B8D9C8D86
:101FF00020E030E040E251E40E941F02DC01CB010E
:10200000BC01CD010E944900DC01CB019C8B8B8B74
:102010000FC089E190E09A8B898B89899A89019711
:10202000F1F79A8B898B8B899C8901979C8B8B8B81
:102030008B899C89009769F714C06D897E898F8987
:10204000988D0E944900DC01CB019C8B8B8B8B8986
:102050009C89988B8F878F8598890197F1F7988B4A
:102060008F8781E062E040E00E94C40A80E090E057
:10207000A0E8BFE38B879C87AD87BE876B857C8597
:102080008D859E8520E030E04AE753E40E941F02E0
:10209000DC01CB018F839887A987BA876F81788508
:1020A00089859A8520E030E040E85FE30E9479036B
:1020B00088232CF481E090E09E838D833FC06F8164
:1020C000788589859A8520E03FEF4FE757E40E94A5
:1020D000190318164CF56B857C858D859E8520E04F
:1020E00030E040E251E40E941F02DC01CB01BC0160
:1020F000CD010E944900DC01CB019E838D830FC07E
:1021000089E190E09C838B838B819C810197F1F71F
:102110009C838B838D819E8101979E838D838D818E
:102120009E81009769F714C06F81788589859A85AB
:102130000E944900DC01CB019E838D838D819E81AD
:102140009A83898389819A810197F1F79A83898398
:10215000E9960FB6F894DEBF0FBECDBFCF91DF91E9
:102160000895DF93CF93CDB7DEB7E9970FB6F89414
:10217000DEBF0FBECDBF89AF81E061E041E00E94CC
:10218000C40A80E090E0A0E8BFE38DAB9EABAFABAC
:10219000B8AF6DA97EA98FA998AD20E030E04AE7DD
:1021A00053E40E941F02DC01CB0189AB9AABABABBD
:1021B000BCAB69A97AA98BA99CA920E030E040E8D2
:1021C0005FE30E94790388232CF481E090E098ABD0
:1021D0008FA73FC069A97AA98BA99CA920E03FEFEE
:1021E0004FE757E40E94190318164CF56DA97EA914
:1021F0008FA998AD20E030E040E251E40E941F0238
:10220000DC01CB01BC01CD010E944900DC01CB0106
:1022100098AB8FA70FC089E190E09EA78DA78DA5F1
:102220009EA50197F1F79EA78DA78FA598A9019765
:1022300098AB8FA78FA598A9009769F714C069A9D3
:102240007AA98BA99CA90E944900DC01CB0198AB1B
:102250008FA78FA598A99CA78BA78BA59CA5019755
:10226000F1F79CA78BA781E062E041E00E94C40ADD
:1022700080E090E0A0E8BFE38FA398A7A9A7BAA742
:102280006FA178A589A59AA520E030E04AE753E43C
:102290000E941F02DC01CB018BA39CA3ADA3BEA3B4
:1022A0006BA17CA18DA19EA120E030E040E85FE31E
:1022B0000E94790388232CF481E090E09AA389A3FB
:1022C0003FC06BA17CA18DA19EA120E03FEF4FE715
:1022D00057E40E94190318164CF56FA178A589A53B
:1022E0009AA520E030E040E251E40E941F02DC01A8
:1022F000CB01BC01CD010E944900DC01CB019AA3B6
:1023000089A30FC089E190E098A38F8F8F8D98A14A
:102310000197F1F798A38F8F89A19AA101979AA3AA
:1023200089A389A19AA1009769F714C06BA17CA128
:102330008DA19EA10E944900DC01CB019AA389A333
:1023400089A19AA19E8F8D8F8D8D9E8D0197F1F71A
:102350009E8F8D8F82E069AD0E948E0C80E090E0B0
:10236000A0E8BFE3898F9A8FAB8FBC8F698D7A8D80
:102370008B8D9C8D20E030E04AE753E40E941F02E1
:10238000DC01CB018D8B9E8BAF8BB88F6D897E89E5
:102390008F89988D20E030E040E85FE30E94790368
:1023A00088232CF481E090E09C8B8B8B3FC06D895F
:1023B0007E898F89988D20E03FEF4FE757E40E9498
:1023C000190318164CF5698D7A8D8B8D9C8D20E044
:1023D00030E040E251E40E941F02DC01CB01BC016D
:1023E000CD010E944900DC01CB019C8B8B8B0FC07F
:1023F00089E190E09A8B898B89899A890197F1F715
:102400009A8B898B8B899C8901979C8B8B8B8B8971
:102410009C89009769F714C06D897E898F89988D92
:102420000E944900DC01CB019C8B8B8B8B899C89A2
:10243000988B8F878F8598890197F1F7988B8F8775
:1024400081E062E040E00E94C40A80E090E0A0E801
:10245000BFE38B879C87AD87BE876B857C858D8529
:102460009E8520E030E04AE753E40E941F02DC0131
:10247000CB018F839887A987BA876F8178858985F3
:102480009A8520E030E040E85FE30E9479038823EA
:102490002CF481E090E09E838D833FC06F8178852E
:1024A00089859A8520E03FEF4FE757E40E941903A2
:1024B00018164CF56B857C858D859E8520E030E077
:1024C00040E251E40E941F02DC01CB01BC01CD01BE
:1024D0000E944900DC01CB019E838D830FC089E1FE
:1024E00090E09C838B838B819C810197F1F79C8387
:1024F0008B838D819E8101979E838D838D819E81AB
:10250000009769F714C06F81788589859A850E9444
:102510004900DC01CB019E838D838D819E819A834E
:10252000898389819A810197F1F79A838983E99652
:102530000FB6F894DEBF0FBECDBFCF91DF910895E7
:10254000DF93CF9300D00F92CDB7DEB79B838A8302
:1025500019820EC08981282F30E08A819B81FC017D
:10256000E20FF31F80810E94B11089818F5F898300
:102570008981282F30E08A819B81FC01E20FF31FC3
:102580008081882339F70F900F900F90CF91DF91C2
:102590000895DF93CF9300D000D00F92CDB7DEB770
:1025A0008A836B838A81282F30E03D832C838C8142
:1025B0009D8181309105C1F02C813D812230310512
:1025C0002CF48C819D81009761F019C02C813D8194
:1025D0002230310569F08C819D818330910561F055
:1025E0000EC08B8189830BC08B81805C898307C07F
:1025F0008B81805F898303C08B81805B8983898124
:1026000080680E94C20E0F900F900F900F900F9055
:10261000CF91DF910895DF93CF9300D000D0CDB755
:10262000DEB789836A835C834B8389816A810E94D8
:10263000C9128B819C810E94A0120F900F900F9065
:102640000F90CF91DF910895DF93CF93CDB7DEB791
:1026500062970FB6F894DEBF0FBECDBF9A8B898B01
:1026600089899A899E012F5F3F4FB9014AE050E066
:102670000E94AF15CE0101960E94A01262960FB67D
:10268000F894DEBF0FBECDBFCF91DF910895DF93E9
:10269000CF93CDB7DEB781E00E94C20ECF91DF911C
:1026A00008951F920F920FB60F9211242F933F930C
:1026B0004F935F936F937F938F939F93AF93BF934A
:1026C000EF93FF93DF93CF93CDB7DEB78091F80000
:1026D0009091F900009729F0E091F800F091F9004D
:1026E0000995CF91DF91FF91EF91BF91AF919F91AC
:1026F0008F917F916F915F914F913F912F910F90AB
:102700000FBE0F901F9018951F920F920FB60F9249
:1027100011242F933F934F935F936F937F938F93E6
:102720009F93AF93BF93EF93FF93DF93CF93CDB777
:10273000DEB78091F8009091F900009729F0E091C0
:10274000F800F091F9000995CF91DF91FF91EF9199
:10275000BF91AF919F918F917F916F915F914F91B9
:102760003F912F910F900FBE0F901F901895DF9300
:10277000CF9300D000D0CDB7DEB79A838983AFE482
:10278000B0E0E981FA818581837088608C93AEE442
:10279000B0E0E981FA818581882F90E08C7090709B
:1027A0009595879595958795880F991F880F991FFF
:1027B000880F991F982FE981FA818481892B8C9346
:1027C000ACE4B0E0E981FA818081918111969C931B
:1027D0008E93AFE5B0E0EFE5F0E0808180688C9308
:1027E000E981FA818581282F30E03C832B838B811E
:1027F0009C81009731F02B813C812430310549F0D8
:1028000018C0A9E5B0E0E9E5F0E0808184608C9330
:1028100010C0AAE4B0E0E981FA8182819381119627
:102820009C938E93A9E5B0E0E9E5F0E080818061BA
:102830008C930F900F900F900F90CF91DF91089590
:10284000DF93CF93CDB7DEB7EFE4F0E01082EEE494
:10285000F0E01082ECE4F0E011821082EAE4F0E0B3
:1028600011821082A9E5B0E0E9E5F0E080818F7E79
:102870008C93CF91DF910895DF93CF9300D0CDB7A4
:10288000DEB79A83898389819A819093F900809336
:10289000F8000F900F90CF91DF910895DF93CF93C1
:1028A00000D000D0CDB7DEB79C838B831A8219820B
:1028B000EBE2F0E082E08083AAE2B0E0EB81FC8111
:1028C0008081847088618C93A0E4B0E0EB81FC810E
:1028D0008081882F90E083709070880F991F8068A6
:1028E0008C93A0E4B0E0E0E4F0E08081382FEB814D
:1028F000FC818281882F90E0880F991F880F991F93
:10290000880F991F282FEB81FC818181882F90E00F
:1029100082959295907F9827807F9827822B832B92
:102920008C93EB81FC8183819481A581B681880F92
:10293000991FAA1FBB1F880F991FAA1FBB1F880FB3
:10294000991FAA1FBB1F9C01AD0180E492E4AFE078
:10295000B0E0BC01CD010E945615DA01C901019712
:102960009A838983E0E4F0E089819A81892F99270D
:102970008083E9E2F0E0898180830F900F900F90CF
:102980000F90CF91DF910895DF93CF930F92CDB742
:10299000DEB78983EBE2F0E08081882F90E08072DF
:1029A00090700097B9F3ECE2F0E0898180830F909A
:1029B000CF91DF910895DF93CF93CDB7DEB7EBE2F0
:1029C000F0E080818823DCF7ECE2F0E08081CF91B9
:1029D000DF910895DF93CF9300D00F92CDB7DEB78C
:1029E0009B838A8319820EC08981282F30E08A81D7
:1029F0009B81FC01E20FF31F80810E94C414898136
:102A00008F5F89838981282F30E08A819B81FC0137
:102A1000E20FF31F8081882339F70F900F900F90FA
:102A2000CF91DF9108950F931F93DF93CF9300D041
:102A30000F92CDB7DEB79B838A8319828981282FB5
:102A400030E08A819B818C01020F131F0E94DB14EE
:102A5000F80180830FC089818F5F89838981282F46
:102A600030E08A819B818C01020F131F0E94DB14CE
:102A7000F80180838981282F30E08A819B81FC01C5
:102A8000E20FF31F8081833231F78981282F30E0F4
:102A90008A819B81FC01E20FF31F10820F900F903F
:102AA0000F90CF91DF911F910F910895A1E21A2EFF
:102AB000AA1BBB1BFD010DC0AA1FBB1FEE1FFF1FE2
:102AC000A217B307E407F50720F0A21BB30BE40B32
:102AD000F50B661F771F881F991F1A9469F7609579
:102AE0007095809590959B01AC01BD01CF01089533
:102AF0002F923F924F925F926F927F928F929F920E
:102B0000AF92BF92CF92DF92EF92FF920F931F93FB
:102B1000CF93DF93CDB7DEB7CA1BDB0B0FB6F894AC
:102B2000DEBF0FBECDBF09942A88398848885F84EC
:102B30006E847D848C849B84AA84B984C884DF805D
:102B4000EE80FD800C811B81AA81B981CE0FD11D41
:102B50000FB6F894DEBF0FBECDBFED010895FB01A7
:102B60009F01E8944230C4F04532B4F44A3029F46D
:102B700097FB1EF4909581959F4F642F77270E94B5
:102B8000E015805D8A330CF0895D8193CB0100975D
:102B9000A1F716F45DE251931082C9010C94D0158F
:102BA000DC01FC01672F71917723E1F7329704C0B4
:102BB0007C916D9370836291AE17BF07C8F308953F
:102BC000AA1BBB1B51E107C0AA1FBB1FA617B70753
:102BD00010F0A61BB70B881F991F5A95A9F780956F
:0C2BE0009095BC01CD010895F894FFCF42
:102BEC004572726F7200506C7A20656E746572203B
:102BFC00706173733A00506C7A2072652D656E7437
:102C0C006572207468650073616D65207061737303
:102C1C003A002B3A4F70656E2074686520446F6FD4
:102C2C0072002D3A4368616E6765205061737300C2
:102C3C00446F6F72204C6F636B696E6700446F6FEB
:102C4C007220556E6C6F636B696E6700000000003C
:102C5C0000000000030000802500000000E80305D0
:022C6C00040062
:00000001FF
